:020000006F2A65
:0E000600F201F101F001F801F30100300800F1
:100014007B15FB1F14280130F300F201F101F001FC
:08002400FA0DF20CFF30080098
:08002C00FA1FF2130030080076
:100034007B14FB1F2528F201FA1FFF30F200F100A8
:0A004400F000FA0DF20CFF30080086
:10004E00FB14FB1F3128FF30F300F200F100F0002B
:08005E00FA0DF20CFF3008005E
:10006600A0017208031D48287108F2007008F1000B
:10007600F001A0157208031D48287108F200F1016D
:10008600A01120167208031956282008F302031D32
:10009600031C5A280310F21B5E28F00DF10DF20D19
:1000A600F30B4E285A280130FC0003206128023049
:0E00B600FC000A2061280430FC00162008001F
:0600C400FB15FF300800EF
:1000CA0083120313FB0173080319A2287208FA00AA
:1000DA00F2178E30F302F31FA528F309F30A08304A
:1000EA007302031C8828F300F10D7208F100F20173
:1000FA0008307302031C8828F300F10DF10173081C
:10010A00031D031090287308031990280310F20C9A
:10011A00F10CF30B8B287B1B711C9A28031C9A2861
:10012A00F10A0319F20AF21BB128FA1FB428F209DC
:10013A00F109F10A0319F20AB428F201F101B4280B
:10014A007B14FB1FB728F201FA1FB728FF30F20011
:10015A00F100FA0DF20CB7280130FC00B928003082
:10016A00FC00B928FF30FC00FC080319BD281A203E
:0A017A007108F0007208F10008009F
:10018400831203137008F8007108F000F101F20102
:10019400F301FB01FC019630F300FA01F01FD828AB
:1001A400F809F009F80A0319F00AFA177008F100BF
:0C01B4007808F000F801F2013320080088
:1001C00083120313B101B201B101B201300832024E
:1001D000031DEC282F0831020318F428000000004A
:0A01E000B10A0319B20AE62808006C
:1001EA00831203137408003A031D10297508003A94
:1001FA00031D10297608003A031D10297708003AD2
:10020A00031D1029FF30F000FF30F1007F30F200AB
:10021A00FF30F300AB2983120313770803199F29D0
:10022A0073080319A229720876068039FA00F217B0
:10023A00F617A0017208F8007108FC007008FD00AA
:10024A007408FD027508031C750FFC027608031C6E
:10025A00760FF802F801FC01FD01031C3B2903108B
:10026A00F20CF10CF00CF80C0130A0007708F30244
:10027A00031C45297E302007F3070318A5294A29BC
:10028A007E302007F307031CA8291830FA07FD0D52
:10029A00FC0DF80DF00DF10DF20DA00D7408F00231
:1002AA007508031C750FF1027608031C760FF2021B
:1002BA00760DA004201C63297D146E297408F007AA
:1002CA0075080318750FF10776080318760AF207FE
:1002DA007D10FA031F307A05031D4C297B1B7D1CF8
:1002EA0095290310F00DF10DF20DA00D7408F0021E
:1002FA007508031C750FF1027608031C760FF202CB
:10030A00760D20040139FD070318FC0A0319F80ABF
:10031A00031D9529F80CFC0CFD0CF30A0319A529F9
:10032A00FA1FF8137808F2007C08F1007D08F00043
:10033A000030AA2901306220AA2902300320AA2902
:0E034A0004302720AA2908300A2000000800ED
:1003580083120313AB01AC01AD01AE01AB01AC01DB
:100368002A082C02031DBA2929082B020318CE29B2
:10037800AD01AE0100302E02031DC4299B302D02B1
:100388000318CA29AD0A0319AE0ABE29AB0A031914
:06039800AC0AB4290800C4
:10039E00831203138F018E0107150A30AF00003050
:1003AE00B000E020F7308705071ADE29DB2910148C
:1003BE00071EE229DF29FE3090050F08F100F0013B
:1003CE000E08F0040030F104C220AE30F4004730C5
:1003DE00F5006B30F6008430F700F520652008003C
:0A03EE008312031329089B00080086
:1003F80083120313F801F9011030FC00710DF80D98
:10040800F90D7408F8027508031C750FF902031832
:10041800142A7408F80775080318750FF9070310EC
:0A042800F00DF10DFC0B022A080094
:1004320083120313FB01FA01F9018030F800F10C79
:10044200F00C031C2D2A7408F90775080318750FA0
:10045200FA070318FB0A0310F01F352A7408FA077B
:1004620075080318750FFB07FB0CFA0CF90CF80C56
:10047200031C202A7B08F3007A08F2007908F100B5
:060482007808F0000800FC
:10048800831203131F151F1D4A2A472A1E08F1004D
:0E049800F00183161E08F0040030F104080085
:0A04A60083120313290895000800D3
:1004B0004130831203139F00CE3083169F00080043
:1004C00007308312031392000C309D000C3097000C
:0E04D000FA308316920083129B0195010800FA
:1004DE0083120313A701A801103083168700803002
:1004EE0086008801103083129000602258224B3013
:1004FE008312A9000030AA005322442270088312EE
:10050E00A1007108A2007008F4007108F500F50C46
:10051E00F40CF513F50CF40CF513FA30F000F101B0
:10052E001922FF30F400F501FC217008A3007108B8
:10053E00A4007008A9007108AA00F721CF21700845
:10054E00A7007108A8008030F000803028067002E5
:10055E00031DB32A2708143C0318C22CCF217008A0
:10056E00A7007108A8008030F20080307106720278
:10057E00031DC32A70080F3C031CC62AC22C44223A
:10058E0070088312A1007108A2007008F4007108AF
:10059E00F500F50CF40CF513F50CF40CF513FA301C
:1005AE00F000F1011922FF30F400F501FC21700872
:1005BE00A3007108A4007008A9007108AA00F72111
:1005CE004B30A9000030AA005322F430A9000130AC
:1005DE00AA00AC210A308800F430A9000130AA002C
:1005EE00AC21CF217008A7007108A8008030F2005E
:1005FE00803071067202031D062B7008143C031C1A
:10060E00092BC22CF430A9000130AA00AC21CF2155
:10061E007008A7007108A8008030F20080307106C3
:10062E007202031D1C2B7008143C031C1F2BC22CC2
:10063E00F430A9000130AA00AC21CF217008A70028
:10064E007108A8008030F200803071067202031D1E
:10065E00322B7008143C031C352BC22CF430A9002D
:10066E000130AA00AC21CF217008A7007108A800A4
:10067E008030F200803071067202031D482B700824
:10068E00143C031C4B2BC22C442270088312A10075
:10069E007108A2007008F4007108F500F50CF40C56
:1006AE00F513F50CF40CF513FA30F000F1011922E4
:1006BE00FF30F400F501FC217008A3007108A400BE
:1006CE007008A9007108AA00F7214B30A90000306C
:1006DE00AA005322F430A9000130AA00AC21CF2188
:1006EE007008A7007108A8008030F20080307106F3
:1006FE007202031D842B7008143C031C872BC22C22
:10070E0009308800FA30A900AA01AC21CF21700867
:10071E00A7007108A8008030F200803071067202C6
:10072E00031D9B2B7008143C031C9E2BC22CFA300D
:10073E00A900AA01AC21CF217008A7007108A8005A
:10074E008030F200803071067202031DB02B7008EB
:10075E00143C031CB32BC22C442270088312A1003C
:10076E007108A2007008F4007108F500F50CF40C85
:10077E00F513F50CF40CF513FA30F000F101192213
:10078E00FF30F400F501FC217008A3007108A400ED
:10079E007008A9007108AA00F7214B30A90000309B
:1007AE00AA005322FA30A900AA01AC210A3088000F
:1007BE00FA30A900AA01AC21CF217008A700710858
:1007CE00A8008030F200803071067202031DF12BFA
:1007DE007008143C031CF42BC22CFA30A900AA0199
:1007EE00AC21CF217008A7007108A8008030F2005C
:1007FE00803071067202031D062C7008143C031C17
:10080E00092CC22CFA30A900AA01AC21CF21700804
:10081E00A7007108A8008030F200803071067202C5
:10082E00031D1B2C7008143C031C1E2CC22CFA300A
:10083E00A900AA01AC21CF217008A7007108A80059
:10084E008030F200803071067202031D302C700869
:10085E00143C031C332CC22CFA30A900AA01AC2183
:10086E00CF217008A7007108A8008030F2008030F8
:10087E0071067202031D452C7008143C031C482C93
:10088E00C22C442270088312A1007108A2007008C5
:10089E00F4007108F500F50CF40CF513F50CF40CDE
:1008AE00F513FA30F000F1011922FF30F400F501D2
:1008BE00FC217008A3007108A4007008A90071083B
:1008CE00AA00F7214B30A9000030AA005322FA30BB
:1008DE00A900AA01AC21063088000330FB008A3043
:1008EE00FC005530FD00FD0B7A2CFC0B7A2CFB0B1B
:1008FE007A2C00000000CF217008A7007108A80014
:10090E008030F200803071067202031D902C700848
:10091E00143C031C932CC22CFA30A900AA01AC2162
:10092E00CF217008A7007108A8008030F200803037
:10093E0071067202031DA52C7008143C031CA82C12
:10094E00C22CFA30A900AA01AC21CF217008A70051
:10095E007108A8008030F200803071067202031D0B
:10096E00BA2C7008143C031CBD2CC22CFA30A90002
:10097E00AA01AC21AA2A09308800442270088312E9
:10098E00A1007108A2007008F4007108F500F50CC2
:10099E00F40CF513F50CF40CF513FA30F000F1012C
:1009AE001922FF30F400F501FC217008A300710834
:1009BE00A4007008A9007108AA00F7214B30A90005
:1009CE000030AA005322F430A9000130AA00AC2155
:0409DE00842AF02C4B
:02400E004A2F37
:00000001FF
